:100000000C946D020C9495020C9495020C9495023C
:100010000C9495020C9495020C9495020C94950204
:100020000C9495020C9495020C9495020C94281350
:100030000C9495020C9495020C9495020C949502E4
:100040000C9486120C9495020C94F6120C94D01217
:100050000C9495020C9495020C9495020C949502C4
:100060000C9495020C9495020101FF030101F70322
:1000700017534400161378001613140015102000AF
:1000800015201000540A03E181867F3E186D830F0E
:100090000F0E0183866033186DC3198F1803C38E4A
:1000A0006033186DE330CF1803C39E603630CDE364
:1000B00060CF3006C79E7E3E30CDB360CF300CC6D9
:1000C000F6603330D9B660CF33CFCCF66061B0DBA9
:1000D0001E60CF30D86CE6C061B0DB1E618F19980E
:1000E0006CC6C063B19B0E330F0FB078C6FF7E1F86
:1000F0001B061E0F003520782035006861726400F1
:100100003420782034006E6F726D616C003320787B
:100110002033006561737900112053656C65637449
:10012000206C6576656C201000401E00001FFFFFEC
:10013000F000007200210204080E40407049326451
:10014000C4080E42404102020408486260FFFFFFFB
:10015000FE0C4C4240820202020848424132023206
:100160002908480001320231290000000232023120
:10017000148000438202020100810E4283FFFFFFD0
:10018000FF810A638404020080418E4205C4320864
:1001900093410873894442389121CE000984721832
:1001A0008B200000108471384B1000701008010083
:1001B00040100E502008010040080A703FFFFFFF6A
:1001C000FFF80E40200801002008087040080100D8
:1001D00020040E004410E111227400008C10A131A3
:1001E000265200608410E11312520C510410A11722
:1001F00092510A510E10E13917710A520010010094
:1002000010008A520020010008008A02002001002C
:1002100008008003FFFFFFFFFFFF80050038016833
:100220000100006C006800050089300802380249AE
:1002300078681400001120596F7520776F6E2120A7
:10024000100000000000240027002A000000000029
:10025000250028002B000A0A153A49676E6F72655F
:10026000006D560A0A504C45415345205455524E94
:10027000204F464620004C4F57204241545445528F
:100280005921200003053F213F1208120A100A0ECF
:100290001C0E0C1E0C141A14161F161E131E1E1BE9
:1002A0001E1E1F1E3F213F3A2F3A173D173F213F89
:1002B000181F02040A041F0E04040E1F0A1F0A0E50
:1002C0000E1F04110E2E252E2F2A2E262929021F3D
:1002D00002081F08150E04040E150E15151B151B1C
:1002E000040604040C040000000017000300031FB0
:1002F0000A1F16371A1904130A153A000300000ED4
:1003000011110E000A040A040E0400300004040453
:100310000010001804031F111F121F101D151711C4
:10032000151F07041F17151D1F151D01011F1F1580
:100330001F17151F000A00003200040A110A0A0ADA
:10034000110A040115020E11171E051E1F150A0EB3
:10035000110A1F110E1F15111F05010E111D1F047B
:100360001F111F1108100F1F041B1F10101F061F45
:100370001E040F0E110E1F09060E112E1F051A1254
:100380001509011F011F101F0F180F1F0C1F1B0441
:100390001B031C03191513001F11030418111F0060
:1003A0000201022020200001020C121E1F120C0C60
:1003B00012120C121F0C1A14041E05242A1E1F02EE
:1003C0001C141D1020201D1F0814111F101E041EB8
:1003D0001E021C0C120C3E0A040C123E1E040214D7
:1003E000160A020F120E101E0E100E1E081E120C00
:1003F0001226281E322A26041E21001F00211E0458
:100400000102013F213FF6E8DBCFC3B8AEA49B92C7
:100410008A827B746E68625C57524E4945413E3A0F
:100420003734312E2C29272523214500680100006F
:10043000172B152010204C4F4144455200172B1606
:10044000201314000A4E6F2053442063617264200D
:100450006F720A6E6F204C4F414445522E484558EA
:100460000A0A153A45786974001D20466C61736864
:10047000696E670A20206C6F616465722E2E2E0AE9
:100480000A444F4E2754205455524E204F46462181
:1004900000000000002300260029000404040404D6
:1004A0000404040202020202020303030303030121
:1004B00002040810204080010204081020010204F8
:1004C00008102000000008000201000003040700DB
:1004D0000000000000000000731311241FBECFEFC6
:1004E000D8E0DEBFCDBF11E0A0E0B1E0E8E1F5E388
:1004F00002C005900D92A033B107D9F724E0A0E324
:10050000B1E001C01D92A938B207E1F712E0CDE6D3
:10051000D2E004C02197FE010E94841ACC36D10794
:10052000C9F70E94B8130C948A1A0C94000090E04A
:10053000880F991FE0913604F0913704E80FF91FF6
:10054000259134913093470420934604F901859115
:10055000949190912B04989F802D112480934804AE
:10056000F90165917491472F50E08417150629F021
:1005700020F0F90125913491832F989F802D11242B
:100580008093490408957F928F929F92AF92BF9279
:10059000CF92DF92EF92FF920F931F93CF93DF934F
:1005A000FB01249131964491022E000C330B12165C
:1005B00013060CF0D0C080330CF0CDC0E82F082E0D
:1005C000000CFF0BDF01A40FB11D47FDBA951A16F1
:1005D0001B060CF0C0C06E5F7F4F8901095F1F4F83
:1005E000A3E015950795AA95E1F787FF0BC0480F83
:1005F0000E9FC0010F9F900D1E9F900D1124681B30
:10060000790B80E0A42F042E000CBB0BA80FB11DAA
:1006100087FDBA95D19714F040E3481BF090700421
:100620002535310514F024E530E0A0915C04A827BD
:10063000982F977031E001C0330F9A95EAF78595AE
:1006400085958595F4E58F02C00111248D599E4F43
:10065000B0E0042E000C550BEE24E394B4171506FD
:100660000CF079C0FB017490F1E0FF121FC06B0128
:10067000EC01E0E8BE2EB72019F0B880B32AB882AA
:10068000E69531F4EFEFCE1ADE0AF6017490E0E859
:100690002196BC2EB81AB21668F3330F19F48C5A8F
:1006A0009F4F31E0BF5F600F711FD8CFF11019C0AD
:1006B000A32EA0946B01EC01E0E8BE2EB72019F048
:1006C000B880BA20B882E69531F4FFEFCF1ADF0A7E
:1006D000F6017490E0E82196BC2EB81AB21668F3C1
:1006E000DCCFF3E06B01EC01E0E8FF1220C0932EB9
:1006F0009094F0E8BF2EA12CEB2DE72139F0E88192
:100700008A2E8A2480FE11C0E32BE883B69439F444
:10071000EFEFCE1ADE0AF6017490E0E8BE2EA39445
:100720002196A21648F3AE25B8CFE921EECFBE2E12
:10073000B72019F0B880B326B882E69531F4FFEF00
:10074000CF1ADF0AF6017490E0E82196BC2EB81AA1
:10075000B21668F3A2CFDF91CF911F910F91FF9056
:10076000EF90DF90CF90BF90AF909F908F907F9051
:100770000895833081F028F4813099F08230A9F017
:1007800008958730A9F08830C9F08430B1F48091A1
:1007900080008F7D03C0809180008F7780938000E0
:1007A000089584B58F7784BD089584B58F7DFBCF80
:1007B0008091B0008F778093B00008958091B00051
:1007C0008F7DF9CF1F93CF93DF93282F30E0F9016E
:1007D000ED53FB4F8491F901E155FB4FD491F901A1
:1007E000E556FB4FC491CC23A9F0162F81110E942E
:1007F000B903EC2FF0E0EE0FFF1FE45BFD4FA59176
:10080000B4918FB7F894EC91111108C0D095DE2304
:10081000DC938FBFDF91CF911F910895DE2BF8CF2E
:10082000CF93C82FF89460E080915F040E94E203A8
:100830008091600418161CF460E00E94E203CEBDB3
:1008400000000DB407FEFDCF8EB580916004181630
:100850001CF461E00E94E2037894CF9108950F9315
:100860001F93CF9380915C048F5F80935C0403E6B9
:1008700011E0C0E08C2F80640E94100480E80E9488
:10088000100461E080915F040E94E20380916004A3
:1008900018161CF460E00E94E203F80184E59191CF
:1008A0009EBD00000DB407FEFDCF9EB58150B9F787
:1008B0008091600418161CF461E00E94E203CF5F8F
:1008C0000C5A1F4FC630B1F680E4CF911F910F91A3
:1008D0000C941004CF93DF9390E0FC01E155FB4FA3
:1008E000249185569B4FFC0184918823C9F090E0A8
:1008F000880F991FFC01EE5BFD4FA591B491FC019F
:10090000E45BFD4FC591D49161110DC09FB7F89480
:100910008C91209582238C938881282328839FBFE4
:10092000DF91CF910895623051F49FB7F8943C91D4
:10093000822F809583238C93E8812E2BEFCF8FB766
:10094000F894EC912E2B2C938FBFEACFFF920F934C
:100950001F93CF93DF93C2E0D4E0FF24FA9462E0C8
:100960008A850E946A042A8530E0F901ED53FB4F25
:100970008491F901E155FB4F0491F901E556FB4FD4
:1009800014911123E1F081110E94B903E12FF0E0ED
:10099000EE0FFF1FEF56FB4FA591B491EC918989A3
:1009A0000E2369F0811113C0219684E0C930D80765
:1009B000B1F6DF91CF911F910F91FF900895898932
:1009C0008F5F898B60E08A850E946A04EDCF8F3F3C
:1009D00011F4198AF7CFF98AF5CF1F93CF93DF93DC
:1009E000182FEB0161E00E946A04209739F460E05F
:1009F000812FDF91CF911F910C94E203CF3FD1055E
:100A000011F461E0F5CFE12FF0E0ED53FB4FE491FD
:100A1000E33031F140F4E130B1F0E230E1F0C038E0
:100A2000D1057CF7E4CFE73029F1E83059F1E43023
:100A3000B1F780918000806280938000D0938B001A
:100A4000C0938A0004C084B5806884BDC7BDDF91AF
:100A5000CF911F91089584B5806284BDC8BDF7CF42
:100A600080918000806880938000D0938900C0933B
:100A70008800EDCF8091B00080688093B000C09373
:100A8000B300E5CF8091B00080628093B000C09346
:100A9000B400DDCF8E50806480937C0080917A001A
:100AA000806480937A0080917A0086FDFCCF8091EB
:100AB0007800909179000895809126048F7149F50E
:100AC00084E10E944A05BC01990F880B990B0E9492
:100AD000471926EE3FE34EEC50E40E94AB190E940A
:100AE00016199B0170931D0460931C04672BB9F0C9
:100AF00084E080931B04EEE1F4E080E041915191A9
:100B00002417350718F480931B0408958F5F8430F1
:100B1000A9F7809126048F5F8093260408958FEFB4
:100B200080931B04F6CF3FB7F894809156019091C3
:100B30005701A0915801B091590126B5A89B05C055
:100B40002F3F19F00196A11DB11D3FBFBA2FA92F4C
:100B5000982F8827BC01CD01620F711D811D911D49
:100B600042E0660F771F881F991F4A95D1F70895B5
:100B70008F929F92AF92BF92CF92DF92EF92FF92AD
:100B80004B015C010E9493056B017C010E9493055F
:100B90006C197D098E099F09683E73408105910596
:100BA000A8F321E0821A9108A108B10888EEC80EC6
:100BB00083E0D81EE11CF11C81149104A104B1044E
:100BC00029F7FF90EF90DF90CF90BF90AF909F906C
:100BD0008F900895EF92FF920F931F93CF93DF931F
:100BE0008C017B01D0E0C0E0F701EC0FFD1F6491A8
:100BF000662361F0D801ED91FC910190F081E02D28
:100C0000C8010995892B11F02196EECFCE01DF9115
:100C1000CF911F910F91FF90EF900895AF92BF92E7
:100C2000CF92DF92EF92FF920F931F93CF93DF93B8
:100C30006C017B018B01040F151FEB015E01AE18E7
:100C4000BF08C017D10759F06991D601ED91FC9109
:100C50000190F081E02DC6010995892B79F7C50136
:100C6000DF91CF911F910F91FF90EF90DF90CF9088
:100C7000BF90AF900895FC01538D448D252F30E037
:100C8000842F90E0821B930B541710F0CF96089599
:100C900001970895FC01918D828D981761F0A28DC6
:100CA000AE0FBF2FB11D5D968C91928D9F5F9F738C
:100CB000928F90E008958FEF9FEF0895FC01918D42
:100CC000828D981731F0828DE80FF11D858D90E0AF
:100CD00008958FEF9FEF0895FC01918D228D892F4C
:100CE00090E0805C9F4F821B91098F739927089534
:100CF00083E693E00E946C0621E0892B09F420E052
:100D0000822F089580E090E0892B29F00E947806D8
:100D100081110C9400000895FC01A48DA80FB92F37
:100D2000B11DA35ABF4F2C91848D90E001968F7313
:100D30009927848FA689B7892C93A089B1898C9132
:100D4000837080648C93938D848D981306C0028881
:100D5000F389E02D80818F7D80830895EF92FF924B
:100D60000F931F93CF93DF93EC0181E0888F9B8DCE
:100D70008C8D98131AC0E889F989808185FF15C088
:100D80009FB7F894EE89FF896083E889F9898081AB
:100D90008370806480839FBF81E090E0DF91CF917A
:100DA0001F910F91FF90EF900895F62E0B8D10E09C
:100DB0000F5F1F4F0F731127E02E8C8D8E110CC00B
:100DC0000FB607FCFACFE889F989808185FFF5CF56
:100DD000CE010E948C06F1CFEB8DEC0FFD2FF11DA3
:100DE000E35AFF4FF0829FB7F8940B8FEA89FB8993
:100DF00080818062CFCFCF93DF93EC01888D8823F1
:100E0000B9F0AA89BB89E889F9898C9185FD03C06D
:100E1000808186FD0DC00FB607FCF7CF8C9185FF52
:100E2000F2CF808185FFEDCFCE010E948C06E9CF05
:100E3000DF91CF910895FC01178A158A14A213A29D
:100E4000108E10925A0110925B0110925E01109266
:100E5000B4000895CF93DF93E09130048E2F90E09B
:100E6000880F991FE0912E04F0912F04E80FF91FCD
:100E7000859194918F3F980729F410922704DF9170
:100E8000CF910895909333049927880F991FE0918B
:100E90003104F0913204E80FF91FC591D49187E233
:100EA00094E00E941B07D0933504C0933404109241
:100EB0003A041092390481E08093280489E08093F9
:100EC0003D04109240041092420410924404809118
:100ED00030048F5F80933004D2CFDC01643570F52D
:100EE000403360F590968C919097E62F062E000C7B
:100EF000FF0B242F25952595259594E52902E00DD6
:100F0000F11D1124ED59FE4F2081342F37708230AE
:100F1000B1F4822F90E0032E02C0959587950A9434
:100F2000E2F780958170811114C081E090E001C0EA
:100F3000880F3A95EAF7809582238083089583305D
:100F400091F71C968C91817064276095617086136F
:100F5000ECCF81E090E001C0880F3A95EAF7822B50
:100F6000ECCF9F92AF92BF92CF92DF92EF92FF921F
:100F70000F931F93CF93DF93C82FD62F042FE22E0A
:100F8000022E000CFF08E61AF10867FDF394F7FE45
:100F900003C0F194E194F108C02E002E000CDD088E
:100FA000CC1AD108C7FDD394D7FE03C0D194C19405
:100FB000D108CE14DF0434F4802F022F282F8C2F79
:100FC000CD2FD82F0C1734F48D2FD22F282F8C2F04
:100FD000C02F082FA02EAC1A822F022E000C990BC6
:100FE0008D1B9109D7FD939597FF03C0919581952E
:100FF0009109B82E1A2DA7FE02C011E01A0D159501
:1010000099249A94D21714F4992493940C1794F079
:101010004C2F6D2FCE14DF0414F04D2F6C2F80E574
:1010200094E00E946D071B1917FF02C0D90D1A0D1D
:10103000CF5FECCFDF91CF911F910F91FF90EF9099
:10104000DF90CF90BF90AF909F900895AF92BF92E6
:10105000CF92DF92EF92FF920F931F93CF93DF9384
:10106000182F062FC0E0D3E08AEFD82E9EEFE92E8E
:10107000842F8470C82E842F8270B82E842F88709D
:10108000A82E4170F42ECF5F8C2F880F8F5FE80E53
:10109000CC2081F0402F4D0F612F6C0F80E594E044
:1010A0000E946D07402F4C0F6D2F610F80E594E07B
:1010B0000E946D07BB2081F0402F4D1B612F6C0FEC
:1010C00080E594E00E946D07402F4C1B6D2F610F4F
:1010D00080E594E00E946D07AA2081F0402F4C0F1C
:1010E000612F6D1B80E594E00E946D07402F4D0F2E
:1010F000612F6C1B80E594E00E946D07FF2081F05A
:10110000402F4C1B612F6D1B80E594E00E946D0702
:10111000402F4D1B612F6C1B80E594E00E946D07F2
:10112000CD173CF4E7FCAFCFD150D394D394ED0C62
:10113000AACFDF91CF911F910F91FF90EF90DF9099
:10114000CF90BF90AF900895EF92FF920F931F93AF
:10115000CF93DF938C01F62ED42FE22EC0E0CE1574
:1011600044F46F2D6C0F4D2FC8010E946D07CF5FA7
:10117000F6CFDF91CF911F910F91FF90EF900895DF
:101180002F923F924F925F926F927F928F929F9297
:10119000AF92BF92CF92DF92EF92FF920F931F9385
:1011A000CF93DF9300D000D0CDB7DEB79C838B8385
:1011B0006A3099F4DC0118962C91189715969C9139
:1011C00015971A968C911A97299F800D11241A96BB
:1011D0008C931A9719961C92F0C06D3009F4EDC0EB
:1011E000EB81FC815184F3E5F5150CF4C3C0AB81B0
:1011F000BC811A96FC90BFE2BF150CF4BBC0EB811A
:10120000FC81108524812150330B129FC001139F54
:10121000900D1124850D911D57FC9A9518161906ED
:101220000CF0A8C025818F2D0F2C000C990B129F5C
:10123000800D911D1124181619060CF09BC0F0A109
:10124000F983752C612C262E312CA12E012E000C39
:10125000BB08E62D062C000CFF0BAB81BC8114965D
:101260008C91149790E0E817F9070CF07EC0019775
:10127000E817F907A1F1289E6001299ED00C389E3D
:10128000D00C1124CE0EDF1E5E96ED91FC91EC0D7C
:10129000FD1DE4910F2DE12CB62DB50DBA83AB8168
:1012A000BC8115962C9115978E2D0E2C000C990B48
:1012B0002817190609F00CF455C0CE2ED12CE0FFEA
:1012C00026C0113071F44E2D4F0D6A81CD010E9460
:1012D0006D07F601F595E795E394010FE0CFE0E0A7
:1012E000D9CF402E4501800E911C07FD9A94842D84
:1012F000042C000C990B881599055CF7212F442DBF
:10130000672D8B819C810E94A4084394F0CFEB81D0
:10131000FC8181A190A18917E1F280A3113061F4D1
:101320004E2D4F0D6A81CF010E946D07E981AB817F
:10133000BC819096EC93CDCF402E4501800E911C40
:1013400007FD9A94842D042C000C990B881599059F
:101350006CF7212F442D672D8B819C810E94A4085E
:101360004394F0CF6394710E74CFE981AB81BC815B
:101370009096EC93AB81BC8118962C91189714969B
:101380003C91149719968C911997239F800D1124E5
:1013900019968C93199717969C911797992369F032
:1013A000082E000C990B44E550E0239F4019510989
:1013B0001124481759070CF401CF81E090E00F90F9
:1013C0000F900F900F90DF91CF911F910F91FF9091
:1013D000EF90DF90CF90BF90AF909F908F907F90D5
:1013E0006F905F904F903F902F900895682F80E509
:1013F00094E00C94C008EF92FF920F931F93CF9349
:10140000DF938C01D62FF42EE22EC0E0CE1544F4EB
:101410004F2D4C0F6D2FC8010E946D07CF5FF6CF87
:10142000DF91CF911F910F91FF90EF9008950F934F
:101430001F93CF93DF93182FD62FC42F022F242F63
:10144000462F682F80E594E00E94A4084FEF400FDC
:101450004D0F2C2F612F80E594E00E94A408202FCF
:101460004D2F612F80E594E00E94FB096FEF6C0F18
:10147000610F202F4D2F80E594E0DF91CF911F91D8
:101480000F910C94FB098F929F92AF92BF92CF92D3
:10149000DF92EF92FF920F931F93CF93DF93082F6A
:1014A000B62E942EA22E83E0F82ED0E0C3E09AEF61
:1014B000E92E1EEFCC24C394C20EDF5F1F0D2C2F2C
:1014C000220F4B2D4C1B8A2C8F0CDB2CDD1A81E05C
:1014D0002C0D602F981218C06D0F80E594E00E94CB
:1014E000FB09282D4D2D6C2F600F80E594E00E94A4
:1014F000FB09DC179CF417FD04C0C150E394E3948E
:101500001E0DF394F394D9CF6D1B80E594E00E94F7
:10151000FB09282D4D2D602F6C1BE7CFDF91CF915C
:101520001F910F91FF90EF90DF90CF90BF90AF9001
:101530009F908F900895089590E080E008958F9295
:101540009F92AF92BF92CF92DF92EF92FF92C090A4
:101550001C04D0901D04C094D094F12CE12C0E9466
:1015600093054B015C010E949305A5019401209510
:1015700030954095509560957095809590950E9416
:10158000401A9B01AC01C701B6010E94401A4B01F1
:101590005C01C0900304D0900404F12CE12C0E9463
:1015A00093056C0D7D1D8E1D9F1D680D791D8A1D77
:1015B0009B1D611571058105910551F0FF90EF901C
:1015C000DF90CF90BF90AF909F908F900C94AA180F
:1015D000FF90EF90DF90CF90BF90AF909F908F9053
:1015E0000895CF93DF93EC01BC01990F880B990B01
:1015F0000E9469134091580420915404429FA00115
:101600001124489F9001499F300D589F300D11249F
:10161000369527958AE2821B80935904BE0180E5A6
:1016200094E0DF91CF910C94EA05FB01019000203A
:10163000E9F73197AF01461B570BDC01ED91FC91A7
:101640000280F381E02D0994CF93DF93BC0180E504
:1016500094E00E94EA05EC0165E271E080E594E027
:101660000E94150B8C0F9D1FDF91CF910895E3E62B
:10167000F1E088EF91E0DF019C011D9221503040A4
:10168000E1F71092590410925A0469E674E080E57B
:1016900094E00E94EA050E942F048CB583608CBD03
:1016A0008DB58E7F8DBD88E291E0EEEFFFE3099569
:1016B0001092560484E494E00E94240B0E942F04AC
:1016C0000E94A60480911704813039F062E370E033
:1016D00080E090E00E94B805F3CF08958F929F922A
:1016E000AF92BF92EF92FF920F931F93CF93DF932E
:1016F000CDB7DEB7A1970FB6F894DEBF0FBECDBF52
:101700007C01FA01CB0119A2223008F42AE08E01F3
:101710000F5D1F4F822E912CB12CA12CBF01A50172
:1017200094010E94E518F901CA016A300CF5605D68
:10173000D8016E938D01232B242B252B79F790E074
:1017400080E0109721F0BD01C7010E94150BA19602
:101750000FB6F894DEBF0FBECDBFDF91CF911F91C2
:101760000F91FF90EF90BF90AF909F908F90089552
:10177000695CDECF4F925F926F927F928F929F92C1
:10178000AF92BF92CF92DF92EF92FF920F931F938F
:10179000CF93DF9300D000D01F92CDB7DEB740913A
:1017A00082045091830460918404709185042FB762
:1017B000F89480915F0190916001A0916101B091D6
:1017C00062012FBF481B590B6A0B7B0B8091810470
:1017D00090E0B0E0A0E000917D0410917E042091A3
:1017E0007F043091800484179507A607B70708F097
:1017F000CEC0011511052105310509F4C8C02FB768
:10180000F89480915F0190916001A0916101B09185
:1018100062012FBF20918104820F911DA11DB11D76
:101820008093820490938304A0938404B0938504EE
:101830008091730490917404A0917504B091760422
:101840000196A11DB11D8093730490937404A0931D
:101850007504B093760410927D0410927E04109269
:101860007F04109280040E94930560937904709322
:101870007A0480937B0490937C048091030490917C
:1018800004042FE0289FA001299F500D11245A83A2
:10189000498385E10E944A05A981BA818A0F9B1F6D
:1018A000B4E096958795BA95E1F7909304048093F8
:1018B000030420910204222309F448C06091060425
:1018C000262F30E050E040E029833A834B835C834D
:1018D000C0900704D12CF12CE12C40910A045091C6
:1018E0000B044A01B12CA12C209108043091090469
:1018F0002901712C612C8217930728F09C0148174D
:10190000590708F49A0150E040E0241935094609C6
:10191000570969817A818B819C816C197D098E09B7
:101920009F090E94401AA50194012419350946090E
:1019300057090E94B318C20ED31EE41EF51EC092B2
:1019400005046C2D70E085E00E94ED040E94A60461
:1019500080911E0490911F04892B11F00E945C0558
:1019600081E00F900F900F900F900F90DF91CF912B
:101970001F910F91FF90EF90DF90CF90BF90AF90AD
:101980009F908F907F906F905F904F900895012B64
:10199000022B032B09F0F1C28091190481508E3F74
:1019A000C8F5809118048130A9F580912C048F5FCF
:1019B00060912D0487FD09C0082E000C990B70E082
:1019C0006F5F7F4F0E945C1A682F60932C048DE339
:1019D00094E0909387048093860488E4809388043D
:1019E00087E294E00E941B078AE294E0909335041A
:1019F0008093340410923A041092390481E0809369
:101A0000280489E080933D0410924004109242041F
:101A1000109244048091190481508E3F70F480919B
:101A20001704813009F036C380E394E09093870473
:101A30008093860488E48093880480912704882317
:101A400031F080912804811102C00E942A07809100
:101A50002804882309F43EC080913C0481113AC0D7
:101A60008091340490913504E0913904F0913A0466
:101A7000EE0FFF1FE80FF91F259134912115310555
:101A800009F4BDC0A9015695479556954795842FF1
:101A900020FD60C08F7380933B0480912B04839F53
:101AA000802D112480933C0410924C0410924B041E
:101AB00010924A0481E080933E0480935E0110926C
:101AC0003F048091390490913A04019690933A042E
:101AD0008093390480913E04882341F080913C0436
:101AE0008111A9C087E294E00E941B0780918804BD
:101AF000882309F4F9C18C3008F087C13CE0381B19
:101B0000398381E08093580410927004109271041C
:101B1000409155044D8393E0E92EE40E1981141B86
:101B20000DE2010F0E2C000CFF08E00EF11C07FD6A
:101B3000FA94802F002E000C990B8E159F050CF047
:101B400066C12EE4402F63E080E594E00E94A40883
:101B50000F5FEFCFC901E6E096958795EA95E1F72B
:101B60008F71932F96959695969590514F70423020
:101B700099F1D0F4442309F43CC04130B9F1E0912B
:101B80003904F0913A043196F0933A04E093390421
:101B9000CF01880F991FE0913404F0913504E80FCC
:101BA000F91F259134916ECF433061F0443039F7FD
:101BB00020912B04289F802D11248093440490931E
:101BC0004504DDCF20912B04289F802D1124809384
:101BD000420490934304D3CF20912B04289F802D5F
:101BE00011248093400490934104C9CF0E9497022E
:101BF000C6CF8B3008F08AE080933D04C0CF20919F
:101C00003804211112C010922804809127048111F8
:101C100005C087E294E00E941B075CCF0E942A0760
:101C20008091390490913A04B4CF10923A04109202
:101C30003904FC01B6CF815080933C0480914C0460
:101C4000811142C020914A0430914B042F5F3F4FD5
:101C5000C901880F991FE0914604F0914704E80FED
:101C6000F91F85919491482F477040934D04492F57
:101C70004695469540934E04AC0164E056954795D1
:101C80006A95E1F74F7390912B04499F402D1124E1
:101C900040934C0483FB882780F980935D01309347
:101CA0004B0420934A048091480490E02817390798
:101CB00058F020914904222309F49FC0821B910906
:101CC00090934B0480934A0480914C0481508093FC
:101CD0004C0480913F0431E0380F30933F04409131
:101CE0003B0420914E04240F80913304280F20934D
:101CF000290460914204662371F070E0832F032E63
:101D0000000C990B0E945C1A80914304869F200D61
:101D10001124209329048091290490E0849664E2A0
:101D200070E00E945C1A8093290420913D04209366
:101D30002A0460914004662381F0062E000C770B84
:101D4000832F032E000C990B0E945C1A8091410492
:101D5000869F200D112420932A0460914404662359
:101D6000A1F0832F330F990B70E00E945C1ACB0116
:101D700062E070E00E945C1A2091450490912A0470
:101D8000289F900D112490932A044F3309F43AC0F0
:101D900080912A048A300CF089E087FD80E08093EE
:101DA0002A04F894E0912904F0E0EA5FFB4FE49103
:101DB000E0935C0120914F0430912A04320390019A
:101DC000112440914D044203C001439F900D112402
:101DD00020912C0402C0880F991F2A95E2F797FFE3
:101DE00002C081589F4F880F892F881F990B8093BD
:101DF0005B0180935A01789479CE87E294E00E9447
:101E00001B0762CF10922A04CCCF19827ACE5D8153
:101E100054505D83105D252F41E0612F80E50E94C5
:101E2000430A2D8142E0612F83E00E94430A81E052
:101E30008093700480937104009155041981101BE4
:101E40008DE2F82EF10E2EE44F2D63E080E594E054
:101E50000E94A40883E0800F8F0D8D83482F41508E
:101E60002EE463E080E594E00E94A4080350105D36
:101E7000202F412F60E080E594E00E94FB09202F95
:101E8000412F63E580E594E00E94FB0941E0612F6A
:101E900083E00E94260842E0612F80E50E94260828
:101EA0009D8194509D8344E0692F80E50E9426081F
:101EB00048E06D8183E00E94260884E08093590405
:101EC00080915504A981A81BA15DA0935A0460913B
:101ED00086047091870480E594E00E94EA05809171
:101EE000880481508093880480911E0490911F047F
:101EF000892BD9F0B1E0B0937004109271049091E5
:101F0000540485E5891B8093590410925A048091EA
:101F10001B04813009F4A3C090F190911A0485301C
:101F200008F0B3C08B5F9111ABC00E942F04809169
:101F3000560481110EC0E3E6F1E088EF91E0DF0185
:101F40009C011D9221503040E1F7109259041092EB
:101F50005A040E94930560937D0470937E048093DD
:101F60007F04909380042091790430917A04621B5D
:101F7000730B709378046093770480E0F2CC87E26F
:101F800094E00E941B071092280421E0209358043B
:101F9000E4E8F2E0E491EF5FE0935404E5E8F2E076
:101FA000E491EF5FE093550486E892E090936F042C
:101FB00080936E0410921F0410921E041092560417
:101FC00038EA39830E94BA0B8823E1F366E772E0AE
:101FD00080E594E00E94EA0540911C0450911D04A4
:101FE00070E060E02AE080E594E00E946E0B61E61C
:101FF00072E080E594E00E94EA05498142954F70C5
:1020000050E070E060E02AE080E594E00E946E0B12
:1020100066E572E080E594E00E94EA05809117048D
:10202000813009F482CF4981415049834111CACF9F
:1020300070E060E085E00E94ED0483B7817F8460FA
:1020400083BF83B7816083BF83B7816083BF889577
:1020500083B78E7F83BF83B78E7F83BFB3CF8091DB
:10206000730490917404A0917504B09176048F70FC
:102070009927AA27BB270897A105B10520F487E077
:102080000E94F60952CF88E7FBCF992309F44DCF80
:102090008FE2F6CF893209F0D0CC0E94370BCDCC3D
:1020A000EF92FF920F931F93CF93DF9310925401FF
:1020B0008091010190910201889F9001899F300DCC
:1020C000300D112430930104209300040E949F0AD4
:1020D00020910004309101042150310984E3E82E5D
:1020E00081E0F82EF70190E080E082179307B4F5C5
:1020F00041E0480F40830196319689319105A9F757
:1021000004E311E0C0910004D0910104C80184539C
:1021100091408C179D0724F130914D0120914E0183
:10212000009101011091020160913201709133011F
:1021300080914F0190915001F0E0E0E0EC17FD0735
:102140001CF5D7014D917D01411106C0CF01B801A9
:102150000E945C1A3E2F2F2F3196F0CF1082CBCFEA
:102160000E945B189E01DD0F440B550B0E94B318B3
:10217000FB01EC5CFE4F8081D8019D918D01908325
:10218000FD0131978083BECF30934D0120934E01E6
:1021900070933301609332019093500180934F010B
:1021A00087E294E00E941B078BE192E09093350454
:1021B0008093340410923A041092390481E08093A1
:1021C000280489E080933D04109240041092420458
:1021D00010924404DF91CF911F910F91FF90EF90E7
:1021E00008958F929F92AF92BF92CF92DF92EF921B
:1021F000FF920F931F93CF93DF93809172048823F4
:1022000009F4F0C081E080935804109257041092B2
:10221000560410921A048093700480937104C4EFE2
:10222000D0E02CE0F22E0AE214E0EE24E39439E050
:10223000D32E0E94BA0B8823E1F3FE01C490C11093
:10224000C090550464E870E080E00E94C30269E237
:1022500071E08CE08C0D0E94C30210925904F09240
:102260005A0464EF70E080E594E00E94EA058091F2
:102270005404982F990F990F891B8D5A80935904F4
:1022800080915504982F990F990F891B835D809336
:102290005A048091730484FF7AC080E890E00E9421
:1022A000240B80915404982F990F990F891B8D5AF4
:1022B0008093590480915A048F5F80935A048091CF
:1022C0002C04882309F466C088E790E00E94240B60
:1022D00080915404982F990F990F891B8D5A8093E0
:1022E000590480915A048F5F80935A0480E790E0EC
:1022F0000E94240B80911804813041F580912C04B8
:102300008F5F60912D0487FD09C0082E000C990B8A
:1023100070E06F5F7F4F0E945C1A682F60932C04FF
:1023200087E294E00E941B07109335040093340465
:1023300010923A0410923904E0922804D0923D049D
:1023400010924004109242041092440480911704A9
:10235000813019F180917204482F50E070E060E004
:102360008090730490907404A0907504B0907604EB
:1023700084169506A606B70610F08F3F71F480917B
:102380001904813009F055CF0E94370B52CF8CE7EA
:1023900090E085CF84E790E099CF8FEF809372042F
:1023A00087E294E00E941B071092280487E294E0E1
:1023B0000E941B078BE192E09093350480933404D4
:1023C00010923A041092390481E08093280499E035
:1023D00090933D04109240041092420410924404E1
:1023E00080931A040E949F0A10921A0485E2D82E44
:1023F000CDE0D6E103E010E095E0E92EF12C0E945B
:10240000BA0B8823E1F3D0925A0488E191E00E944C
:10241000F10A80910101909102018330910509F048
:102420004BC0C0935A0483E191E00E94F10AD0931B
:102430005A048DE091E00E94F10A809117048130E6
:1024400009F456C080911504813049F4809101014E
:102450009091020101969093020180930101809175
:10246000010190910201069724F01093020100935C
:10247000010180911304813049F480910101909110
:102480000201019790930201809301018091010163
:1024900090910201039724F4F0920201E09201016D
:1024A00080911904813029F080911804813009F05D
:1024B000A6CF0E94F110A3CF8430910559F4C093A8
:1024C0005A0486E091E00E94F10AD0935A0480E019
:1024D00091E0B1CF059709F0B0CFC0935A048BEFCC
:1024E00090E00E94F10AD0935A0485EF90E0A3CFC8
:1024F000DF91CF911F910F91FF90EF90DF90CF90E0
:10250000BF90AF909F908F900C9450101F920F929D
:102510000FB60F9211242F933F938F939F93AF93F6
:10252000BF9380915F0190916001A0916101B09192
:1025300062013091550123E0230F2D3758F50196A4
:10254000A11DB11D2093550180935F0190936001FF
:10255000A0936101B093620180915601909157015F
:10256000A0915801B09159010196A11DB11D809310
:10257000560190935701A0935801B0935901BF9110
:10258000AF919F918F913F912F910F900FBE0F9020
:102590001F90189526E8230F0296A11DB11DD2CFDA
:1025A0001F920F920FB60F9211242F933F934F93C8
:1025B0005F936F937F938F939F93AF93BF93EF93AB
:1025C000FF9383E693E00E948C06FF91EF91BF9109
:1025D000AF919F918F917F916F915F914F913F91BB
:1025E0002F910F900FBE0F901F9018951F920F9272
:1025F0000FB60F9211242F938F939F93EF93FF9316
:10260000E0917303F09174038081E0917903F0917C
:102610007A0382FD1BC0908180917C038F5F8F7352
:1026200020917D03821741F0E0917C03F0E0ED59A9
:10263000FC4F958F80937C03FF91EF919F918F9139
:102640002F910F900FBE0F901F9018958081F4CF9F
:102650001F920F920FB60F9211242F936F937F93B7
:102660008F939F9360915B01662349F180913001C4
:102670008F5F8093300190915C01891700F1209168
:102680005E0181E0282720935E0110923001809145
:102690005D01882369F08091000193E4899F802D7A
:1026A0001124895B809300010E94501A90935A0173
:1026B00080915A01211101C080E08093B4009F9164
:1026C0008F917F916F912F910F900FBE0F901F9060
:1026D0001895FB0105900020E9F7609570956E0F45
:1026E0007F1FCB010895E3E6F3E01382128288EEA8
:1026F00093E0A0E0B0E084839583A683B7838BE06A
:1027000091E09183808385EC90E09587848784ECC9
:1027100090E09787868780EC90E0918B808B81ECAE
:1027200090E0938B828B82EC90E0958B848B86EC8F
:1027300090E0978B868B118E128E138E148E1092D2
:102740005304109252048DE191E0909351048093D0
:1027500050048091010190910201889F9001899F0E
:10276000300D300D1124309301042093000408959E
:10277000789484B5826084BD84B5816084BD85B55C
:10278000826085BD85B5816085BD80916E00816068
:1027900080936E001092810080918100826080930E
:1027A0008100809181008160809381008091800010
:1027B0008160809380008091B10084608093B1003B
:1027C0008091B00081608093B00080917A00846035
:1027D00080937A0080917A00826080937A00809161
:1027E0007A00816080937A0080917A00806880937B
:1027F0007A001092C100E0917303F091740382E0BB
:102800008083E0916F03F09170031082E091710377
:10281000F09172038FEC808310927B03E091770339
:10282000F091780386E08083E0917503F091760360
:10283000808180618083E0917503F09176038081CF
:1028400088608083E0917503F091760380818068D1
:102850008083E0917503F091760380818F7D808382
:1028600082E38093810481E090E0A0E0B0E0809377
:102870007D0490937E04A0937F04B09380048FEF37
:1028800080937204E0E8F7E7259134912130304CD1
:1028900009F07EC2E6E9F7E7E491E0935B04E7E93B
:1028A000F7E7E491E0930604E8E9F7E7E491E093C1
:1028B0000704E9E9F7E785919491909309048093DF
:1028C0000804EBE9F7E78591949190930B048093CA
:1028D0000A0487E080932D04EEE9F7E7E491E093A2
:1028E0002C04EFE9F7E7E491E0937204E0EAF7E7FC
:1028F0008591949190931F0480931E04E2EAF7E778
:10290000859194919093210480932004E4EAF7E761
:10291000859194919093230480932204E6EAF7E74B
:10292000859194919093250480932404C1E0C093F1
:1029300002046FEF70E085E00E94ED0488E0809370
:102940000C0489E080930D0487E080930E0486E0F8
:1029500080930F04D4E0D093100482E0809311049C
:1029600081E1809312040E94A6048CE39FE090937F
:102970001D0480931C04D0931B04C09326048BE099
:1029800080935E048DE080935D0480E180935F041A
:102990008EE0809361048FE080936004C0935804BC
:1029A000C093700410927104C0935704E4E8F2E0FD
:1029B000E491EF5FE0935404E5E8F2E0E491EF5F27
:1029C000E093550486E892E090936F0480936E0440
:1029D000CFB7F89480913101811127C0E5EAF4E086
:1029E0008491E9EBF4E09491E82FF0E0EE0FFF1F03
:1029F000EE5BFD4FA591B491EC91E92321F461E0E8
:102A00008AE00E94E20361E08AE00E946A048CB5D9
:102A100080618CBD8CB580648CBD61E08DE00E94CE
:102A20006A0461E08BE00E946A04809131018F5F4B
:102A300080933101CFBF8CB58F7D8CBD8CB58C7FE1
:102A400081608CBD8DB581608DBD8CB58C608CBD79
:102A500061E080915E040E946A0461E080915D04FF
:102A60000E946A0461E080915F040E946A04809180
:102A7000610418161CF461E00E946A0480916004ED
:102A800018161CF461E00E946A0480916104181613
:102A900074F460E00E94E2036AE070E080E090E09D
:102AA0000E94B80561E0809161040E94E203809178
:102AB0005D04082E000C990BFC01E556FB4FE491D8
:102AC000F0E0EE0FFF1FE45BFD4F25913491309352
:102AD000650420936404FC01E155FB4FE491E0930D
:102AE0006B0480915E04082E000C990BFC01E556E6
:102AF000FB4FE491F0E0EE0FFF1FE45BFD4F2591EB
:102B000034913093630420936204FC01E155FB4F40
:102B1000E491E0936A0480916004082E000C990B04
:102B2000FC01E556FB4FE491F0E0EE0FFF1FE45B84
:102B3000FD4F259134913093670420936604FC0186
:102B4000E155FB4FE491E0936C0480915F04082E03
:102B5000000C990BFC01E556FB4FE491F0E0EE0F01
:102B6000FF1FE45BFD4F259134913093690420935E
:102B70006804FC01E155FB4FE491E0936D0481E2B0
:102B80000E94100484E10E94100480915B0487FF7E
:102B900003C08FE780935B0480915B0480680E9490
:102BA000100480E20E9410048CE00E9410040E9435
:102BB0002F0481E080932B0484E080934F0483E210
:102BC00092E0909337048093360480E00E9497024D
:102BD00061E070E083E00E94ED048091B100887FA5
:102BE00081608093B100F89410928000109281006F
:102BF000109285001092840088E191E09093890002
:102C0000809388008091810088608093810080910A
:102C1000810081608093810080916F008260809349
:102C20006F00789480911E0490911F04892B11F0FD
:102C30000E945C0580911804813009F4D6C080910F
:102C40001B04882309F4D1C087E294E00E941B078B
:102C500087E292E0909335048093340410923A0412
:102C60001092390481E08093280489E080933D0428
:102C70001092400410924204109244040E94F110F9
:102C800004E510E050E3E52EF12C60E0462E60E014
:102C9000562E7724739475E3C72E72E0D72E40E248
:102CA000242E0E94BA0B882309F4AAC1809119042A
:102CB000813011F40E94F11080911804813011F4D8
:102CC0000E945010C0910101D091020180915401E5
:102CD000882309F48DC0D0925301C09252012092F2
:102CE0005101C801BE010E945C1A362EC701BE0107
:102CF0000E945C1A662E20E344E560E080E00E94BA
:102D0000170AAA24A394B12CAC16BD060CF4FFC07C
:102D100024E3822E21E0922ED0E0C0E0B12CA12C41
:102D20002091000430910104C40184539140821722
:102D300093070CF000C1F40141914F014423D1F0FD
:102D4000C39D802D11248B5F80935904A69C802DF8
:102D500011248C5F80935A0450E070E060E02AE018
:102D600080E594E00E946E0B65E271E080E594E0FE
:102D70000E94150B21968091010190910201C817C4
:102D8000D90774F28FEFA81AB80AD0E0C0E0C8CF14
:102D90009CE390935B04109206048093070480E206
:102DA00093E0909309048093080484ED93E090935A
:102DB0000B0480930A0487E080932D0480932C04F5
:102DC0008CEA9DE090931F0480931E048EED9DE09D
:102DD000909321048093200484E79EE09093230441
:102DE000809322048CE39FE09DCD10922C0446CF6B
:102DF00080911504813029F180911304813009F00C
:102E00004AC080914F019091500101968C179D0707
:102E1000FCF0209100043091010421503109E4E3D9
:102E2000F1E081E090E0AF01445351404217530775
:102E30000CF0F2C041914817190609F052CF0196E3
:102E4000F2CF80914F0190915001019797FDE1CF12
:102E5000A0914D01B0914E01AC5CBE4F6C91409180
:102E6000320150913301C49F9001C59F300DD49F12
:102E7000300D1124280F391FF901EC5CFE4F408101
:102E80004C9330934E0120934D01909350018093C9
:102E90004F016083BECF80911604813049F5809147
:102EA000320190913301019797FDB3CFA0914D016D
:102EB000B0914E01AC5CBE4F6C91C89FA001C99F00
:102EC000500DD89F500D112420914F013091500189
:102ED000240F351FF901EC5CFE4F40814C93309379
:102EE0004E0120934D019093330180933201D1CF55
:102EF00080911404813009F08CCF8091320190913F
:102F0000330101968C179D070CF083CFCFCF6A9CBD
:102F1000602D1124262F44E580E00E94B1073A9CE1
:102F2000802D112420E3482F60E00E94B107EFEFCD
:102F3000AE1ABE0AE9CE80915101882309F460C01F
:102F400094EF692E680E8C3008F0612CA09052012D
:102F5000B0905301B5010B2C000C880B990B0E940B
:102F600069138090580490915404899E802C1124F8
:102F7000889E802C11247092580470927004709274
:102F80007104D82DD695209155042E5F42E0480D4E
:102F900099249A94960C692D88E28D1B0E94170A39
:102FA0001092700410927104C0915504CF5F839405
:102FB00089E2382E3D1A0C2E000CDD0BC90DD11DF7
:102FC00097FCDA95892D092C000C990B8C179D071D
:102FD0004CF4282D492D632D80E594E00E94A4082F
:102FE0009394F0CF709270047092710460925A04BE
:102FF000C5010E94F10A80915101815080935101D5
:103000004114510409F44DCE0E947806882309F436
:1030100046CE0E94000043CE7092540162CE8F9241
:103020009F92AF92BF92CF92DF92EF92FF92CF9397
:10303000DF93EC01688179818A819B81611571053B
:103040008105910521F464E279ED8BE597E02DE1AE
:1030500033EF41E050E00E94B31849015A019B014F
:10306000AC01A7EAB1E40E94D2186B017C01ACEE7E
:10307000B4EFA50194010E94E018C60ED71EE81E09
:10308000F91EF7FE06C081E0C81AD108E10880E801
:10309000F80AC882D982EA82FB82C701B6019F770B
:1030A000DF91CF91FF90EF90DF90CF90BF90AF90E6
:1030B0009F908F9008958F929F92AF92BF92CF92E0
:1030C000DF92EF92FF926091030170910401809171
:1030D000050190910601611571058105910521F4A5
:1030E00064E279ED8BE597E02DE133EF41E050E0CC
:1030F0000E94B31849015A019B01AC01A7EAB1E44F
:103100000E94D2186B017C01ACEEB4EFA5019401D2
:103110000E94E018C60ED71EE81EF91EF7FE06C074
:1031200081E0C81AD108E10880E8F80AC0920301DA
:10313000D0920401E0920501F0920601C701B601A8
:103140009F77FF90EF90DF90CF90BF90AF909F90D0
:103150008F9008956093030170930401809305019B
:10316000909306010895052E97FB1EF400940E948B
:10317000CA1857FD07D00E94E51807FC03D04EF48B
:103180000C94CA1850954095309521953F4F4F4F5C
:103190005F4F089590958095709561957F4F8F4F03
:1031A0009F4F08950E940719A59F900DB49F900D01
:1031B000A49F800D911D11240895B7FF0C94D2187F
:1031C0000E94D218821B930B0895A1E21A2EAA1B0B
:1031D000BB1BFD010DC0AA1FBB1FEE1FFF1FA217C7
:1031E000B307E407F50720F0A21BB30BE40BF50BC4
:1031F000661F771F881F991F1A9469F7609570954D
:10320000809590959B01AC01BD01CF010895A29FCF
:10321000B001B39FC001A39F700D811D1124911DAA
:10322000B29F700D811D1124911D08950E948A196D
:1032300088F09F5798F0B92F9927B751B0F0E1F077
:10324000660F771F881F991F1AF0BA95C9F714C027
:10325000B13091F00E94A419B1E008950C94A41922
:10326000672F782F8827B85F39F0B93FCCF3869560
:1032700077956795B395D9F73EF4909580957095BD
:1032800061957F4F8F4F9F4F0895E89409C097FB3A
:103290003EF490958095709561957F4F8F4F9F4F2D
:1032A0009923A9F0F92F96E9BB279395F695879571
:1032B00077956795B795F111F8CFFAF4BB0F11F434
:1032C00060FF1BC06F5F7F4F8F4F9F4F16C08823DB
:1032D00011F096E911C0772321F09EE8872F762F11
:1032E00005C0662371F096E8862F70E060E02AF052
:1032F0009A95660F771F881FDAF7880F969587953E
:1033000097F9089557FD9058440F551F59F05F3FA6
:1033100071F04795880F97FB991F61F09F3F79F0F7
:1033200087950895121613061406551FF2CF469579
:10333000F1DF08C0161617061806991FF1CF8695FB
:103340007105610508940895E894BB2766277727DF
:10335000CB0197F908950E94BE190C942F1A0E9470
:10336000211A38F00E94281A20F0952311F00C94AD
:10337000181A0C941E1A11240C94A5190E94821973
:1033800070F3959FC1F3950F50E0551F629FF001B8
:10339000729FBB27F00DB11D639FAA27F00DB11DD1
:1033A000AA1F649F6627B00DA11D661F829F22275A
:1033B000B00DA11D621F739FB00DA11D621F839FE1
:1033C000A00D611D221F749F3327A00D611D231FB7
:1033D000849F600D211D822F762F6A2F11249F5705
:1033E00050409AF0F1F088234AF0EE0FFF1FBB1F08
:1033F000661F771F881F91505040A9F79E3F5105C7
:1034000080F00C94181A0C94A5195F3FE4F3983ED1
:10341000D4F3869577956795B795F795E7959F5F70
:10342000C1F7FE2B880F911D9695879597F9089502
:1034300097F99F6780E870E060E008959FEF80EC67
:10344000089500240A94161617061806090608950A
:1034500000240A9412161306140605060895092E70
:103460000394000C11F4882352F0BB0F40F4BF2BDF
:1034700011F460FF04C06F5F7F4F8F4F9F4F08951F
:10348000DB018F939F930E94D218BF91AF91A29FAF
:10349000800D911DA39F900DB29F900D1124089552
:1034A000991B79E004C0991F961708F0961B881F96
:1034B0007A95C9F78095089597FB072E16F4009426
:1034C00007D077FD09D00E94701A07FC05D03EF4A2
:1034D000909581959F4F0895709561957F4F0895C0
:1034E000AA1BBB1B51E107C0AA1FBB1FA617B7072A
:1034F00010F0A61BB70B881F991F5A95A9F7809546
:103500009095BC01CD010895EE0FFF1F0590F49139
:08351000E02D0994F894FFCFAF
:103518000103000100000000000000AE060E063B9B
:1035280006FB066C064A065E0600000000C0080E90
:10353800069C0A9B0A0D0A004C4F41444552000064
:00000001FF
